{
  "contractName": "Candidate",
  "abi": [
    {
      "inputs": [
        {
          "internalType": "address",
          "name": "_electionCommissionAddress",
          "type": "address"
        }
      ],
      "stateMutability": "nonpayable",
      "type": "constructor"
    },
    {
      "inputs": [
        {
          "internalType": "uint256",
          "name": "",
          "type": "uint256"
        }
      ],
      "name": "candidateData",
      "outputs": [
        {
          "internalType": "string",
          "name": "fname",
          "type": "string"
        },
        {
          "internalType": "string",
          "name": "lname",
          "type": "string"
        },
        {
          "internalType": "string",
          "name": "party_name",
          "type": "string"
        },
        {
          "internalType": "string",
          "name": "party_symbol",
          "type": "string"
        },
        {
          "internalType": "address",
          "name": "ethereum_address",
          "type": "address"
        }
      ],
      "stateMutability": "view",
      "type": "function"
    },
    {
      "inputs": [
        {
          "internalType": "string",
          "name": "_fname",
          "type": "string"
        },
        {
          "internalType": "string",
          "name": "_lname",
          "type": "string"
        },
        {
          "internalType": "string",
          "name": "_party_name",
          "type": "string"
        },
        {
          "internalType": "string",
          "name": "_party_symbol",
          "type": "string"
        },
        {
          "internalType": "address",
          "name": "candidate_address",
          "type": "address"
        }
      ],
      "name": "insertCandidateData",
      "outputs": [],
      "stateMutability": "nonpayable",
      "type": "function"
    },
    {
      "inputs": [
        {
          "internalType": "string",
          "name": "_party_name",
          "type": "string"
        }
      ],
      "name": "getCandidateDataByPartyName",
      "outputs": [
        {
          "components": [
            {
              "internalType": "string",
              "name": "fname",
              "type": "string"
            },
            {
              "internalType": "string",
              "name": "lname",
              "type": "string"
            },
            {
              "internalType": "string",
              "name": "party_name",
              "type": "string"
            },
            {
              "internalType": "string",
              "name": "party_symbol",
              "type": "string"
            },
            {
              "internalType": "address",
              "name": "ethereum_address",
              "type": "address"
            }
          ],
          "internalType": "struct Candidate.candidate_template_data",
          "name": "_candidate",
          "type": "tuple"
        }
      ],
      "stateMutability": "view",
      "type": "function"
    },
    {
      "inputs": [
        {
          "internalType": "string",
          "name": "_party_name",
          "type": "string"
        }
      ],
      "name": "getCandidateAddressByPartyName",
      "outputs": [
        {
          "internalType": "address",
          "name": "_candidate_address",
          "type": "address"
        }
      ],
      "stateMutability": "view",
      "type": "function"
    },
    {
      "inputs": [],
      "name": "getPartiesList",
      "outputs": [
        {
          "internalType": "string[]",
          "name": "parties",
          "type": "string[]"
        }
      ],
      "stateMutability": "view",
      "type": "function"
    }
  ],
  "bytecode": "0x608060405234801562000010575f80fd5b50604051620017db380380620017db8339818101604052810190620000369190620000e2565b8060015f6101000a81548173ffffffffffffffffffffffffffffffffffffffff021916908373ffffffffffffffffffffffffffffffffffffffff1602179055505062000112565b5f80fd5b5f73ffffffffffffffffffffffffffffffffffffffff82169050919050565b5f620000ac8262000081565b9050919050565b620000be81620000a0565b8114620000c9575f80fd5b50565b5f81519050620000dc81620000b3565b92915050565b5f60208284031215620000fa57620000f96200007d565b5b5f6200010984828501620000cc565b91505092915050565b6116bb80620001205f395ff3fe608060405234801561000f575f80fd5b5060043610610054575f3560e01c80621d51f914610058578063318c95d91461008857806337a811a1146100a45780638b209dcd146100c25780638ec9bc6a146100f6575b5f80fd5b610072600480360381019061006d9190610c72565b610126565b60405161007f9190610e0e565b60405180910390f35b6100a2600480360381019061009d9190610e58565b610471565b005b6100ac610741565b6040516100b99190611009565b60405180910390f35b6100dc60048036038101906100d7919061105c565b610883565b6040516100ed9594939291906110de565b60405180910390f35b610110600480360381019061010b9190610c72565b610afa565b60405161011d919061114b565b60405180910390f35b61012e610bc5565b5f5b5f8054905081101561046957838360405161014c9291906111a0565b60405180910390205f8281548110610167576101666111b8565b5b905f5260205f20906005020160020160405161018391906112d4565b604051809103902003610456575f81815481106101a3576101a26111b8565b5b905f5260205f2090600502016040518060a00160405290815f820180546101c990611212565b80601f01602080910402602001604051908101604052809291908181526020018280546101f590611212565b80156102405780601f1061021757610100808354040283529160200191610240565b820191905f5260205f20905b81548152906001019060200180831161022357829003601f168201915b5050505050815260200160018201805461025990611212565b80601f016020809104026020016040519081016040528092919081815260200182805461028590611212565b80156102d05780601f106102a7576101008083540402835291602001916102d0565b820191905f5260205f20905b8154815290600101906020018083116102b357829003601f168201915b505050505081526020016002820180546102e990611212565b80601f016020809104026020016040519081016040528092919081815260200182805461031590611212565b80156103605780601f1061033757610100808354040283529160200191610360565b820191905f5260205f20905b81548152906001019060200180831161034357829003601f168201915b5050505050815260200160038201805461037990611212565b80601f01602080910402602001604051908101604052809291908181526020018280546103a590611212565b80156103f05780601f106103c7576101008083540402835291602001916103f0565b820191905f5260205f20905b8154815290600101906020018083116103d357829003601f168201915b50505050508152602001600482015f9054906101000a900473ffffffffffffffffffffffffffffffffffffffff1673ffffffffffffffffffffffffffffffffffffffff1673ffffffffffffffffffffffffffffffffffffffff168152505091505061046b565b808061046190611317565b915050610130565b505b92915050565b60015f9054906101000a900473ffffffffffffffffffffffffffffffffffffffff1673ffffffffffffffffffffffffffffffffffffffff163373ffffffffffffffffffffffffffffffffffffffff1614610500576040517f08c379a00000000000000000000000000000000000000000000000000000000081526004016104f7906113ce565b60405180910390fd5b610508610bc5565b89898080601f0160208091040260200160405190810160405280939291908181526020018383808284375f81840152601f19601f82011690508083019250505050505050815f018190525087878080601f0160208091040260200160405190810160405280939291908181526020018383808284375f81840152601f19601f82011690508083019250505050505050816020018190525083838080601f0160208091040260200160405190810160405280939291908181526020018383808284375f81840152601f19601f82011690508083019250505050505050816060018190525085858080601f0160208091040260200160405190810160405280939291908181526020018383808284375f81840152601f19601f82011690508083019250505050505050816040018190525081816080019073ffffffffffffffffffffffffffffffffffffffff16908173ffffffffffffffffffffffffffffffffffffffff16815250505f81908060018154018082558091505060019003905f5260205f2090600502015f909190919091505f820151815f0190816106aa91906115b6565b5060208201518160010190816106c091906115b6565b5060408201518160020190816106d691906115b6565b5060608201518160030190816106ec91906115b6565b506080820151816004015f6101000a81548173ffffffffffffffffffffffffffffffffffffffff021916908373ffffffffffffffffffffffffffffffffffffffff160217905550505050505050505050505050565b60605f8054905067ffffffffffffffff811115610761576107606113ec565b5b60405190808252806020026020018201604052801561079457816020015b606081526020019060019003908161077f5790505b5090505f5b5f8054905081101561087f575f81815481106107b8576107b76111b8565b5b905f5260205f20906005020160020180546107d290611212565b80601f01602080910402602001604051908101604052809291908181526020018280546107fe90611212565b80156108495780601f1061082057610100808354040283529160200191610849565b820191905f5260205f20905b81548152906001019060200180831161082c57829003601f168201915b5050505050828281518110610861576108606111b8565b5b6020026020010181905250808061087790611317565b915050610799565b5090565b5f8181548110610891575f80fd5b905f5260205f2090600502015f91509050805f0180546108b090611212565b80601f01602080910402602001604051908101604052809291908181526020018280546108dc90611212565b80156109275780601f106108fe57610100808354040283529160200191610927565b820191905f5260205f20905b81548152906001019060200180831161090a57829003601f168201915b50505050509080600101805461093c90611212565b80601f016020809104026020016040519081016040528092919081815260200182805461096890611212565b80156109b35780601f1061098a576101008083540402835291602001916109b3565b820191905f5260205f20905b81548152906001019060200180831161099657829003601f168201915b5050505050908060020180546109c890611212565b80601f01602080910402602001604051908101604052809291908181526020018280546109f490611212565b8015610a3f5780601f10610a1657610100808354040283529160200191610a3f565b820191905f5260205f20905b815481529060010190602001808311610a2257829003601f168201915b505050505090806003018054610a5490611212565b80601f0160208091040260200160405190810160405280929190818152602001828054610a8090611212565b8015610acb5780601f10610aa257610100808354040283529160200191610acb565b820191905f5260205f20905b815481529060010190602001808311610aae57829003601f168201915b505050505090806004015f9054906101000a900473ffffffffffffffffffffffffffffffffffffffff16905085565b5f805f90505b5f80549050811015610bbd578383604051610b1c9291906111a0565b60405180910390205f8281548110610b3757610b366111b8565b5b905f5260205f209060050201600201604051610b5391906112d4565b604051809103902003610baa575f8181548110610b7357610b726111b8565b5b905f5260205f2090600502016004015f9054906101000a900473ffffffffffffffffffffffffffffffffffffffff16915050610bbf565b8080610bb590611317565b915050610b00565b505b92915050565b6040518060a00160405280606081526020016060815260200160608152602001606081526020015f73ffffffffffffffffffffffffffffffffffffffff1681525090565b5f80fd5b5f80fd5b5f80fd5b5f80fd5b5f80fd5b5f8083601f840112610c3257610c31610c11565b5b8235905067ffffffffffffffff811115610c4f57610c4e610c15565b5b602083019150836001820283011115610c6b57610c6a610c19565b5b9250929050565b5f8060208385031215610c8857610c87610c09565b5b5f83013567ffffffffffffffff811115610ca557610ca4610c0d565b5b610cb185828601610c1d565b92509250509250929050565b5f81519050919050565b5f82825260208201905092915050565b5f5b83811015610cf4578082015181840152602081019050610cd9565b5f8484015250505050565b5f601f19601f8301169050919050565b5f610d1982610cbd565b610d238185610cc7565b9350610d33818560208601610cd7565b610d3c81610cff565b840191505092915050565b5f73ffffffffffffffffffffffffffffffffffffffff82169050919050565b5f610d7082610d47565b9050919050565b610d8081610d66565b82525050565b5f60a083015f8301518482035f860152610da08282610d0f565b91505060208301518482036020860152610dba8282610d0f565b91505060408301518482036040860152610dd48282610d0f565b91505060608301518482036060860152610dee8282610d0f565b9150506080830151610e036080860182610d77565b508091505092915050565b5f6020820190508181035f830152610e268184610d86565b905092915050565b610e3781610d66565b8114610e41575f80fd5b50565b5f81359050610e5281610e2e565b92915050565b5f805f805f805f805f60a08a8c031215610e7557610e74610c09565b5b5f8a013567ffffffffffffffff811115610e9257610e91610c0d565b5b610e9e8c828d01610c1d565b995099505060208a013567ffffffffffffffff811115610ec157610ec0610c0d565b5b610ecd8c828d01610c1d565b975097505060408a013567ffffffffffffffff811115610ef057610eef610c0d565b5b610efc8c828d01610c1d565b955095505060608a013567ffffffffffffffff811115610f1f57610f1e610c0d565b5b610f2b8c828d01610c1d565b93509350506080610f3e8c828d01610e44565b9150509295985092959850929598565b5f81519050919050565b5f82825260208201905092915050565b5f819050602082019050919050565b5f610f828383610d0f565b905092915050565b5f602082019050919050565b5f610fa082610f4e565b610faa8185610f58565b935083602082028501610fbc85610f68565b805f5b85811015610ff75784840389528151610fd88582610f77565b9450610fe383610f8a565b925060208a01995050600181019050610fbf565b50829750879550505050505092915050565b5f6020820190508181035f8301526110218184610f96565b905092915050565b5f819050919050565b61103b81611029565b8114611045575f80fd5b50565b5f8135905061105681611032565b92915050565b5f6020828403121561107157611070610c09565b5b5f61107e84828501611048565b91505092915050565b5f82825260208201905092915050565b5f6110a182610cbd565b6110ab8185611087565b93506110bb818560208601610cd7565b6110c481610cff565b840191505092915050565b6110d881610d66565b82525050565b5f60a0820190508181035f8301526110f68188611097565b9050818103602083015261110a8187611097565b9050818103604083015261111e8186611097565b905081810360608301526111328185611097565b905061114160808301846110cf565b9695505050505050565b5f60208201905061115e5f8301846110cf565b92915050565b5f81905092915050565b828183375f83830152505050565b5f6111878385611164565b935061119483858461116e565b82840190509392505050565b5f6111ac82848661117c565b91508190509392505050565b7f4e487b71000000000000000000000000000000000000000000000000000000005f52603260045260245ffd5b7f4e487b71000000000000000000000000000000000000000000000000000000005f52602260045260245ffd5b5f600282049050600182168061122957607f821691505b60208210810361123c5761123b6111e5565b5b50919050565b5f819050815f5260205f209050919050565b5f815461126081611212565b61126a8186611164565b9450600182165f81146112845760018114611299576112cb565b60ff19831686528115158202860193506112cb565b6112a285611242565b5f5b838110156112c3578154818901526001820191506020810190506112a4565b838801955050505b50505092915050565b5f6112df8284611254565b915081905092915050565b7f4e487b71000000000000000000000000000000000000000000000000000000005f52601160045260245ffd5b5f61132182611029565b91507fffffffffffffffffffffffffffffffffffffffffffffffffffffffffffffffff8203611353576113526112ea565b5b600182019050919050565b7f496e636f6d696e672063616c6c206973206e6f742066726f6d20456c656374695f8201527f6f6e20436f6d6d697373696f6e277320636f6e74726163740000000000000000602082015250565b5f6113b8603883611087565b91506113c38261135e565b604082019050919050565b5f6020820190508181035f8301526113e5816113ac565b9050919050565b7f4e487b71000000000000000000000000000000000000000000000000000000005f52604160045260245ffd5b5f819050815f5260205f209050919050565b5f6020601f8301049050919050565b5f82821b905092915050565b5f600883026114757fffffffffffffffffffffffffffffffffffffffffffffffffffffffffffffffff8261143a565b61147f868361143a565b95508019841693508086168417925050509392505050565b5f819050919050565b5f6114ba6114b56114b084611029565b611497565b611029565b9050919050565b5f819050919050565b6114d3836114a0565b6114e76114df826114c1565b848454611446565b825550505050565b5f90565b6114fb6114ef565b6115068184846114ca565b505050565b5b818110156115295761151e5f826114f3565b60018101905061150c565b5050565b601f82111561156e5761153f81611419565b6115488461142b565b81016020851015611557578190505b61156b6115638561142b565b83018261150b565b50505b505050565b5f82821c905092915050565b5f61158e5f1984600802611573565b1980831691505092915050565b5f6115a6838361157f565b9150826002028217905092915050565b6115bf82610cbd565b67ffffffffffffffff8111156115d8576115d76113ec565b5b6115e28254611212565b6115ed82828561152d565b5f60209050601f83116001811461161e575f841561160c578287015190505b611616858261159b565b86555061167d565b601f19841661162c86611419565b5f5b828110156116535784890151825560018201915060208501945060208101905061162e565b86831015611670578489015161166c601f89168261157f565b8355505b6001600288020188555050505b50505050505056fea264697066735822122024baafdd9cf95d80afec0cbff7c252796e76d60eb3c6242967a87bbc6d75dd4964736f6c63430008140033",
  "immutableReferences": {},
  "source": "// SPDX-License-Identifier: MIT\npragma solidity >=0.4.22 <0.9.0;\npragma abicoder v2;\n\n\n\ncontract Candidate {\n    \n    \n    struct candidate_template_data {\n        \n        string fname;\n        string lname;\n        string party_name;\n        string party_symbol;\n        address ethereum_address;\n    }\n    \n    \n    candidate_template_data [] public candidateData;\n    \n    address electionCommissionAddress;\n    \n    constructor (address _electionCommissionAddress) \n    {\n        electionCommissionAddress = _electionCommissionAddress;\n        \n    }\n    \n    \n    function insertCandidateData(string calldata _fname, string calldata _lname, string calldata _party_name,string calldata  _party_symbol, address candidate_address) external \n    {\n        \n        require(msg.sender == electionCommissionAddress , \"Incoming call is not from Election Commission's contract\");\n        \n        candidate_template_data memory obj ;\n        \n        obj.fname = _fname;\n        obj.lname = _lname;\n        obj.party_symbol = _party_symbol;\n        obj.party_name = _party_name;\n        obj.ethereum_address = candidate_address;\n        \n        candidateData.push(obj);\n    }\n    \n    \n    function getCandidateDataByPartyName(string calldata _party_name) public view returns (candidate_template_data memory  _candidate)\n    {\n        \n        for(uint loop= 0; loop<candidateData.length; loop++)\n        {\n            if(keccak256(bytes(candidateData[loop].party_name)) == keccak256(bytes(_party_name)))\n            {\n                return candidateData[loop];\n            }\n        }\n        \n    }\n    \n    function getCandidateAddressByPartyName(string calldata _party_name) public view returns (address   _candidate_address)\n    {\n        \n        for(uint loop= 0; loop<candidateData.length; loop++)\n        {\n            if(keccak256(bytes(candidateData[loop].party_name)) == keccak256(bytes(_party_name)))\n            {\n                return candidateData[loop].ethereum_address;\n            }\n        }\n        \n    }\n    \n    \n    function getPartiesList() external view returns(string [] memory parties)\n    {\n         parties = new string[](candidateData.length);\n         \n         for(uint loop=0; loop<candidateData.length; loop++)\n         {\n             parties[loop] =candidateData[loop].party_name; \n             \n         }\n        \n    }\n    \n    \n    \n}",
  "sourcePath": "C:\\Users\\Administrator\\Documents\\5_election_dapp\\contracts\\Candidate.sol",
  "compiler": {
    "name": "solc",
    "version": "0.8.20+commit.a1b79de6.Emscripten.clang"
  },
  "schemaVersion": "3.4.14",
  "updatedAt": "2023-10-17T13:52:41.554Z",
  "devdoc": {
    "kind": "dev",
    "methods": {},
    "version": 1
  },
  "userdoc": {
    "kind": "user",
    "methods": {},
    "version": 1
  }
}