{
  "contractName": "ElectionCommission",
  "abi": [
    {
      "inputs": [],
      "stateMutability": "nonpayable",
      "type": "constructor"
    },
    {
      "inputs": [],
      "name": "getCandidateContractAddress",
      "outputs": [
        {
          "internalType": "address",
          "name": "candidateContractAddress",
          "type": "address"
        }
      ],
      "stateMutability": "view",
      "type": "function",
      "constant": true
    },
    {
      "inputs": [],
      "name": "getVoterContractAddress",
      "outputs": [
        {
          "internalType": "address",
          "name": "voterContractAddress",
          "type": "address"
        }
      ],
      "stateMutability": "view",
      "type": "function",
      "constant": true
    },
    {
      "inputs": [
        {
          "internalType": "string",
          "name": "_fname",
          "type": "string"
        },
        {
          "internalType": "string",
          "name": "_lname",
          "type": "string"
        },
        {
          "internalType": "string",
          "name": "_party_name",
          "type": "string"
        },
        {
          "internalType": "string",
          "name": "_party_symbol",
          "type": "string"
        },
        {
          "internalType": "address",
          "name": "candidate_address",
          "type": "address"
        }
      ],
      "name": "insertNewCandidate",
      "outputs": [],
      "stateMutability": "nonpayable",
      "type": "function"
    }
  ],
  "bytecode": "0x608060405234801561000f575f80fd5b50335f806101000a81548173ffffffffffffffffffffffffffffffffffffffff021916908373ffffffffffffffffffffffffffffffffffffffff1602179055503060405161005c90610155565b61006691906101ae565b604051809103905ff08015801561007f573d5f803e3d5ffd5b5060015f6101000a81548173ffffffffffffffffffffffffffffffffffffffff021916908373ffffffffffffffffffffffffffffffffffffffff16021790555060015f9054906101000a900473ffffffffffffffffffffffffffffffffffffffff166040516100ed90610162565b6100f791906101ae565b604051809103905ff080158015610110573d5f803e3d5ffd5b5060025f6101000a81548173ffffffffffffffffffffffffffffffffffffffff021916908373ffffffffffffffffffffffffffffffffffffffff1602179055506101c7565b6117db8061076283390190565b6111ed80611f3d83390190565b5f73ffffffffffffffffffffffffffffffffffffffff82169050919050565b5f6101988261016f565b9050919050565b6101a88161018e565b82525050565b5f6020820190506101c15f83018461019f565b92915050565b61058e806101d45f395ff3fe608060405234801561000f575f80fd5b506004361061003f575f3560e01c806306a28b5114610043578063680f318c1461005f578063c5ce8bcf1461007d575b5f80fd5b61005d600480360381019061005891906102dd565b61009b565b005b6100676101ca565b60405161007491906103e2565b60405180910390f35b6100856101f2565b60405161009291906103e2565b60405180910390f35b5f8054906101000a900473ffffffffffffffffffffffffffffffffffffffff1673ffffffffffffffffffffffffffffffffffffffff163373ffffffffffffffffffffffffffffffffffffffff1614610128576040517f08c379a000000000000000000000000000000000000000000000000000000000815260040161011f9061047b565b60405180910390fd5b60015f9054906101000a900473ffffffffffffffffffffffffffffffffffffffff1673ffffffffffffffffffffffffffffffffffffffff1663318c95d98a8a8a8a8a8a8a8a8a6040518a63ffffffff1660e01b8152600401610192999897969594939291906104e3565b5f604051808303815f87803b1580156101a9575f80fd5b505af11580156101bb573d5f803e3d5ffd5b50505050505050505050505050565b5f60015f9054906101000a900473ffffffffffffffffffffffffffffffffffffffff16905090565b5f60025f9054906101000a900473ffffffffffffffffffffffffffffffffffffffff16905090565b5f80fd5b5f80fd5b5f80fd5b5f80fd5b5f80fd5b5f8083601f84011261024357610242610222565b5b8235905067ffffffffffffffff8111156102605761025f610226565b5b60208301915083600182028301111561027c5761027b61022a565b5b9250929050565b5f73ffffffffffffffffffffffffffffffffffffffff82169050919050565b5f6102ac82610283565b9050919050565b6102bc816102a2565b81146102c6575f80fd5b50565b5f813590506102d7816102b3565b92915050565b5f805f805f805f805f60a08a8c0312156102fa576102f961021a565b5b5f8a013567ffffffffffffffff8111156103175761031661021e565b5b6103238c828d0161022e565b995099505060208a013567ffffffffffffffff8111156103465761034561021e565b5b6103528c828d0161022e565b975097505060408a013567ffffffffffffffff8111156103755761037461021e565b5b6103818c828d0161022e565b955095505060608a013567ffffffffffffffff8111156103a4576103a361021e565b5b6103b08c828d0161022e565b935093505060806103c38c828d016102c9565b9150509295985092959850929598565b6103dc816102a2565b82525050565b5f6020820190506103f55f8301846103d3565b92915050565b5f82825260208201905092915050565b7f20596f7520617265206e6f7420616e2061646d696e6973747261746f72206f665f8201527f207468697320636f6e7472616374000000000000000000000000000000000000602082015250565b5f610465602e836103fb565b91506104708261040b565b604082019050919050565b5f6020820190508181035f83015261049281610459565b9050919050565b828183375f83830152505050565b5f601f19601f8301169050919050565b5f6104c283856103fb565b93506104cf838584610499565b6104d8836104a7565b840190509392505050565b5f60a0820190508181035f8301526104fc818b8d6104b7565b9050818103602083015261051181898b6104b7565b905081810360408301526105268187896104b7565b9050818103606083015261053b8185876104b7565b905061054a60808301846103d3565b9a995050505050505050505056fea264697066735822122062289e3fff1a2c18b150a751bb493e19a88ac2914dc57c6866cd7132fdbb9a5b64736f6c63430008140033608060405234801562000010575f80fd5b50604051620017db380380620017db8339818101604052810190620000369190620000e2565b8060015f6101000a81548173ffffffffffffffffffffffffffffffffffffffff021916908373ffffffffffffffffffffffffffffffffffffffff1602179055505062000112565b5f80fd5b5f73ffffffffffffffffffffffffffffffffffffffff82169050919050565b5f620000ac8262000081565b9050919050565b620000be81620000a0565b8114620000c9575f80fd5b50565b5f81519050620000dc81620000b3565b92915050565b5f60208284031215620000fa57620000f96200007d565b5b5f6200010984828501620000cc565b91505092915050565b6116bb80620001205f395ff3fe608060405234801561000f575f80fd5b5060043610610054575f3560e01c80621d51f914610058578063318c95d91461008857806337a811a1146100a45780638b209dcd146100c25780638ec9bc6a146100f6575b5f80fd5b610072600480360381019061006d9190610c72565b610126565b60405161007f9190610e0e565b60405180910390f35b6100a2600480360381019061009d9190610e58565b610471565b005b6100ac610741565b6040516100b99190611009565b60405180910390f35b6100dc60048036038101906100d7919061105c565b610883565b6040516100ed9594939291906110de565b60405180910390f35b610110600480360381019061010b9190610c72565b610afa565b60405161011d919061114b565b60405180910390f35b61012e610bc5565b5f5b5f8054905081101561046957838360405161014c9291906111a0565b60405180910390205f8281548110610167576101666111b8565b5b905f5260205f20906005020160020160405161018391906112d4565b604051809103902003610456575f81815481106101a3576101a26111b8565b5b905f5260205f2090600502016040518060a00160405290815f820180546101c990611212565b80601f01602080910402602001604051908101604052809291908181526020018280546101f590611212565b80156102405780601f1061021757610100808354040283529160200191610240565b820191905f5260205f20905b81548152906001019060200180831161022357829003601f168201915b5050505050815260200160018201805461025990611212565b80601f016020809104026020016040519081016040528092919081815260200182805461028590611212565b80156102d05780601f106102a7576101008083540402835291602001916102d0565b820191905f5260205f20905b8154815290600101906020018083116102b357829003601f168201915b505050505081526020016002820180546102e990611212565b80601f016020809104026020016040519081016040528092919081815260200182805461031590611212565b80156103605780601f1061033757610100808354040283529160200191610360565b820191905f5260205f20905b81548152906001019060200180831161034357829003601f168201915b5050505050815260200160038201805461037990611212565b80601f01602080910402602001604051908101604052809291908181526020018280546103a590611212565b80156103f05780601f106103c7576101008083540402835291602001916103f0565b820191905f5260205f20905b8154815290600101906020018083116103d357829003601f168201915b50505050508152602001600482015f9054906101000a900473ffffffffffffffffffffffffffffffffffffffff1673ffffffffffffffffffffffffffffffffffffffff1673ffffffffffffffffffffffffffffffffffffffff168152505091505061046b565b808061046190611317565b915050610130565b505b92915050565b60015f9054906101000a900473ffffffffffffffffffffffffffffffffffffffff1673ffffffffffffffffffffffffffffffffffffffff163373ffffffffffffffffffffffffffffffffffffffff1614610500576040517f08c379a00000000000000000000000000000000000000000000000000000000081526004016104f7906113ce565b60405180910390fd5b610508610bc5565b89898080601f0160208091040260200160405190810160405280939291908181526020018383808284375f81840152601f19601f82011690508083019250505050505050815f018190525087878080601f0160208091040260200160405190810160405280939291908181526020018383808284375f81840152601f19601f82011690508083019250505050505050816020018190525083838080601f0160208091040260200160405190810160405280939291908181526020018383808284375f81840152601f19601f82011690508083019250505050505050816060018190525085858080601f0160208091040260200160405190810160405280939291908181526020018383808284375f81840152601f19601f82011690508083019250505050505050816040018190525081816080019073ffffffffffffffffffffffffffffffffffffffff16908173ffffffffffffffffffffffffffffffffffffffff16815250505f81908060018154018082558091505060019003905f5260205f2090600502015f909190919091505f820151815f0190816106aa91906115b6565b5060208201518160010190816106c091906115b6565b5060408201518160020190816106d691906115b6565b5060608201518160030190816106ec91906115b6565b506080820151816004015f6101000a81548173ffffffffffffffffffffffffffffffffffffffff021916908373ffffffffffffffffffffffffffffffffffffffff160217905550505050505050505050505050565b60605f8054905067ffffffffffffffff811115610761576107606113ec565b5b60405190808252806020026020018201604052801561079457816020015b606081526020019060019003908161077f5790505b5090505f5b5f8054905081101561087f575f81815481106107b8576107b76111b8565b5b905f5260205f20906005020160020180546107d290611212565b80601f01602080910402602001604051908101604052809291908181526020018280546107fe90611212565b80156108495780601f1061082057610100808354040283529160200191610849565b820191905f5260205f20905b81548152906001019060200180831161082c57829003601f168201915b5050505050828281518110610861576108606111b8565b5b6020026020010181905250808061087790611317565b915050610799565b5090565b5f8181548110610891575f80fd5b905f5260205f2090600502015f91509050805f0180546108b090611212565b80601f01602080910402602001604051908101604052809291908181526020018280546108dc90611212565b80156109275780601f106108fe57610100808354040283529160200191610927565b820191905f5260205f20905b81548152906001019060200180831161090a57829003601f168201915b50505050509080600101805461093c90611212565b80601f016020809104026020016040519081016040528092919081815260200182805461096890611212565b80156109b35780601f1061098a576101008083540402835291602001916109b3565b820191905f5260205f20905b81548152906001019060200180831161099657829003601f168201915b5050505050908060020180546109c890611212565b80601f01602080910402602001604051908101604052809291908181526020018280546109f490611212565b8015610a3f5780601f10610a1657610100808354040283529160200191610a3f565b820191905f5260205f20905b815481529060010190602001808311610a2257829003601f168201915b505050505090806003018054610a5490611212565b80601f0160208091040260200160405190810160405280929190818152602001828054610a8090611212565b8015610acb5780601f10610aa257610100808354040283529160200191610acb565b820191905f5260205f20905b815481529060010190602001808311610aae57829003601f168201915b505050505090806004015f9054906101000a900473ffffffffffffffffffffffffffffffffffffffff16905085565b5f805f90505b5f80549050811015610bbd578383604051610b1c9291906111a0565b60405180910390205f8281548110610b3757610b366111b8565b5b905f5260205f209060050201600201604051610b5391906112d4565b604051809103902003610baa575f8181548110610b7357610b726111b8565b5b905f5260205f2090600502016004015f9054906101000a900473ffffffffffffffffffffffffffffffffffffffff16915050610bbf565b8080610bb590611317565b915050610b00565b505b92915050565b6040518060a00160405280606081526020016060815260200160608152602001606081526020015f73ffffffffffffffffffffffffffffffffffffffff1681525090565b5f80fd5b5f80fd5b5f80fd5b5f80fd5b5f80fd5b5f8083601f840112610c3257610c31610c11565b5b8235905067ffffffffffffffff811115610c4f57610c4e610c15565b5b602083019150836001820283011115610c6b57610c6a610c19565b5b9250929050565b5f8060208385031215610c8857610c87610c09565b5b5f83013567ffffffffffffffff811115610ca557610ca4610c0d565b5b610cb185828601610c1d565b92509250509250929050565b5f81519050919050565b5f82825260208201905092915050565b5f5b83811015610cf4578082015181840152602081019050610cd9565b5f8484015250505050565b5f601f19601f8301169050919050565b5f610d1982610cbd565b610d238185610cc7565b9350610d33818560208601610cd7565b610d3c81610cff565b840191505092915050565b5f73ffffffffffffffffffffffffffffffffffffffff82169050919050565b5f610d7082610d47565b9050919050565b610d8081610d66565b82525050565b5f60a083015f8301518482035f860152610da08282610d0f565b91505060208301518482036020860152610dba8282610d0f565b91505060408301518482036040860152610dd48282610d0f565b91505060608301518482036060860152610dee8282610d0f565b9150506080830151610e036080860182610d77565b508091505092915050565b5f6020820190508181035f830152610e268184610d86565b905092915050565b610e3781610d66565b8114610e41575f80fd5b50565b5f81359050610e5281610e2e565b92915050565b5f805f805f805f805f60a08a8c031215610e7557610e74610c09565b5b5f8a013567ffffffffffffffff811115610e9257610e91610c0d565b5b610e9e8c828d01610c1d565b995099505060208a013567ffffffffffffffff811115610ec157610ec0610c0d565b5b610ecd8c828d01610c1d565b975097505060408a013567ffffffffffffffff811115610ef057610eef610c0d565b5b610efc8c828d01610c1d565b955095505060608a013567ffffffffffffffff811115610f1f57610f1e610c0d565b5b610f2b8c828d01610c1d565b93509350506080610f3e8c828d01610e44565b9150509295985092959850929598565b5f81519050919050565b5f82825260208201905092915050565b5f819050602082019050919050565b5f610f828383610d0f565b905092915050565b5f602082019050919050565b5f610fa082610f4e565b610faa8185610f58565b935083602082028501610fbc85610f68565b805f5b85811015610ff75784840389528151610fd88582610f77565b9450610fe383610f8a565b925060208a01995050600181019050610fbf565b50829750879550505050505092915050565b5f6020820190508181035f8301526110218184610f96565b905092915050565b5f819050919050565b61103b81611029565b8114611045575f80fd5b50565b5f8135905061105681611032565b92915050565b5f6020828403121561107157611070610c09565b5b5f61107e84828501611048565b91505092915050565b5f82825260208201905092915050565b5f6110a182610cbd565b6110ab8185611087565b93506110bb818560208601610cd7565b6110c481610cff565b840191505092915050565b6110d881610d66565b82525050565b5f60a0820190508181035f8301526110f68188611097565b9050818103602083015261110a8187611097565b9050818103604083015261111e8186611097565b905081810360608301526111328185611097565b905061114160808301846110cf565b9695505050505050565b5f60208201905061115e5f8301846110cf565b92915050565b5f81905092915050565b828183375f83830152505050565b5f6111878385611164565b935061119483858461116e565b82840190509392505050565b5f6111ac82848661117c565b91508190509392505050565b7f4e487b71000000000000000000000000000000000000000000000000000000005f52603260045260245ffd5b7f4e487b71000000000000000000000000000000000000000000000000000000005f52602260045260245ffd5b5f600282049050600182168061122957607f821691505b60208210810361123c5761123b6111e5565b5b50919050565b5f819050815f5260205f209050919050565b5f815461126081611212565b61126a8186611164565b9450600182165f81146112845760018114611299576112cb565b60ff19831686528115158202860193506112cb565b6112a285611242565b5f5b838110156112c3578154818901526001820191506020810190506112a4565b838801955050505b50505092915050565b5f6112df8284611254565b915081905092915050565b7f4e487b71000000000000000000000000000000000000000000000000000000005f52601160045260245ffd5b5f61132182611029565b91507fffffffffffffffffffffffffffffffffffffffffffffffffffffffffffffffff8203611353576113526112ea565b5b600182019050919050565b7f496e636f6d696e672063616c6c206973206e6f742066726f6d20456c656374695f8201527f6f6e20436f6d6d697373696f6e277320636f6e74726163740000000000000000602082015250565b5f6113b8603883611087565b91506113c38261135e565b604082019050919050565b5f6020820190508181035f8301526113e5816113ac565b9050919050565b7f4e487b71000000000000000000000000000000000000000000000000000000005f52604160045260245ffd5b5f819050815f5260205f209050919050565b5f6020601f8301049050919050565b5f82821b905092915050565b5f600883026114757fffffffffffffffffffffffffffffffffffffffffffffffffffffffffffffffff8261143a565b61147f868361143a565b95508019841693508086168417925050509392505050565b5f819050919050565b5f6114ba6114b56114b084611029565b611497565b611029565b9050919050565b5f819050919050565b6114d3836114a0565b6114e76114df826114c1565b848454611446565b825550505050565b5f90565b6114fb6114ef565b6115068184846114ca565b505050565b5b818110156115295761151e5f826114f3565b60018101905061150c565b5050565b601f82111561156e5761153f81611419565b6115488461142b565b81016020851015611557578190505b61156b6115638561142b565b83018261150b565b50505b505050565b5f82821c905092915050565b5f61158e5f1984600802611573565b1980831691505092915050565b5f6115a6838361157f565b9150826002028217905092915050565b6115bf82610cbd565b67ffffffffffffffff8111156115d8576115d76113ec565b5b6115e28254611212565b6115ed82828561152d565b5f60209050601f83116001811461161e575f841561160c578287015190505b611616858261159b565b86555061167d565b601f19841661162c86611419565b5f5b828110156116535784890151825560018201915060208501945060208101905061162e565b86831015611670578489015161166c601f89168261157f565b8355505b6001600288020188555050505b50505050505056fea264697066735822122024baafdd9cf95d80afec0cbff7c252796e76d60eb3c6242967a87bbc6d75dd4964736f6c63430008140033608060405234801562000010575f80fd5b50604051620011ed380380620011ed8339818101604052810190620000369190620000e2565b8060015f6101000a81548173ffffffffffffffffffffffffffffffffffffffff021916908373ffffffffffffffffffffffffffffffffffffffff1602179055505062000112565b5f80fd5b5f73ffffffffffffffffffffffffffffffffffffffff82169050919050565b5f620000ac8262000081565b9050919050565b620000be81620000a0565b8114620000c9575f80fd5b50565b5f81519050620000dc81620000b3565b92915050565b5f60208284031215620000fa57620000f96200007d565b5b5f6200010984828501620000cc565b91505092915050565b6110cd80620001205f395ff3fe608060405234801561000f575f80fd5b506004361061003f575f3560e01c80630642d7e1146100435780634dd6c17e1461005f578063567fdd9b1461008f575b5f80fd5b61005d600480360381019061005891906108bf565b6100c0565b005b61007960048036038101906100749190610992565b6102d7565b60405161008691906109f5565b60405180910390f35b6100a960048036038101906100a49190610992565b61042d565b6040516100b7929190610a88565b60405180910390f35b5f60015f9054906101000a900473ffffffffffffffffffffffffffffffffffffffff1673ffffffffffffffffffffffffffffffffffffffff16638ec9bc6a836040518263ffffffff1660e01b815260040161011b9190610ab6565b602060405180830381865afa158015610136573d5f803e3d5ffd5b505050506040513d601f19601f8201168201806040525081019061015a9190610b30565b90505f73ffffffffffffffffffffffffffffffffffffffff168173ffffffffffffffffffffffffffffffffffffffff16036101ca576040517f08c379a00000000000000000000000000000000000000000000000000000000081526004016101c190610bcb565b60405180910390fd5b6101d2610743565b83815f018190525033816020019073ffffffffffffffffffffffffffffffffffffffff16908173ffffffffffffffffffffffffffffffffffffffff16815250505f808373ffffffffffffffffffffffffffffffffffffffff1673ffffffffffffffffffffffffffffffffffffffff1681526020019081526020015f2081908060018154018082558091505060019003905f5260205f2090600202015f909190919091505f820151815f0190816102889190610de3565b506020820151816001015f6101000a81548173ffffffffffffffffffffffffffffffffffffffff021916908373ffffffffffffffffffffffffffffffffffffffff160217905550505050505050565b5f8060015f9054906101000a900473ffffffffffffffffffffffffffffffffffffffff1673ffffffffffffffffffffffffffffffffffffffff16638ec9bc6a85856040518363ffffffff1660e01b8152600401610335929190610ede565b602060405180830381865afa158015610350573d5f803e3d5ffd5b505050506040513d601f19601f820116820180604052508101906103749190610b30565b90505f73ffffffffffffffffffffffffffffffffffffffff168173ffffffffffffffffffffffffffffffffffffffff16036103e4576040517f08c379a00000000000000000000000000000000000000000000000000000000081526004016103db90610f70565b60405180910390fd5b5f808273ffffffffffffffffffffffffffffffffffffffff1673ffffffffffffffffffffffffffffffffffffffff1681526020019081526020015f208054905091505092915050565b60605f8060015f9054906101000a900473ffffffffffffffffffffffffffffffffffffffff1673ffffffffffffffffffffffffffffffffffffffff16638ec9bc6a86866040518363ffffffff1660e01b815260040161048d929190610ede565b602060405180830381865afa1580156104a8573d5f803e3d5ffd5b505050506040513d601f19601f820116820180604052508101906104cc9190610b30565b90505f73ffffffffffffffffffffffffffffffffffffffff168173ffffffffffffffffffffffffffffffffffffffff160361053c576040517f08c379a000000000000000000000000000000000000000000000000000000000815260040161053390610fd8565b60405180910390fd5b5f5b5f808373ffffffffffffffffffffffffffffffffffffffff1673ffffffffffffffffffffffffffffffffffffffff1681526020019081526020015f2080549050811015610739573373ffffffffffffffffffffffffffffffffffffffff165f808473ffffffffffffffffffffffffffffffffffffffff1673ffffffffffffffffffffffffffffffffffffffff1681526020019081526020015f2082815481106105ea576105e9610ff6565b5b905f5260205f2090600202016001015f9054906101000a900473ffffffffffffffffffffffffffffffffffffffff1673ffffffffffffffffffffffffffffffffffffffff1603610726575f808373ffffffffffffffffffffffffffffffffffffffff1673ffffffffffffffffffffffffffffffffffffffff1681526020019081526020015f20818154811061068257610681610ff6565b5b905f5260205f2090600202015f018181805461069d90610c16565b80601f01602080910402602001604051908101604052809291908181526020018280546106c990610c16565b80156107145780601f106106eb57610100808354040283529160200191610714565b820191905f5260205f20905b8154815290600101906020018083116106f757829003601f168201915b5050505050915093509350505061073c565b808061073190611050565b91505061053e565b50505b9250929050565b6040518060400160405280606081526020015f73ffffffffffffffffffffffffffffffffffffffff1681525090565b5f604051905090565b5f80fd5b5f80fd5b5f80fd5b5f80fd5b5f601f19601f8301169050919050565b7f4e487b71000000000000000000000000000000000000000000000000000000005f52604160045260245ffd5b6107d18261078b565b810181811067ffffffffffffffff821117156107f0576107ef61079b565b5b80604052505050565b5f610802610772565b905061080e82826107c8565b919050565b5f67ffffffffffffffff82111561082d5761082c61079b565b5b6108368261078b565b9050602081019050919050565b828183375f83830152505050565b5f61086361085e84610813565b6107f9565b90508281526020810184848401111561087f5761087e610787565b5b61088a848285610843565b509392505050565b5f82601f8301126108a6576108a5610783565b5b81356108b6848260208601610851565b91505092915050565b5f80604083850312156108d5576108d461077b565b5b5f83013567ffffffffffffffff8111156108f2576108f161077f565b5b6108fe85828601610892565b925050602083013567ffffffffffffffff81111561091f5761091e61077f565b5b61092b85828601610892565b9150509250929050565b5f80fd5b5f80fd5b5f8083601f84011261095257610951610783565b5b8235905067ffffffffffffffff81111561096f5761096e610935565b5b60208301915083600182028301111561098b5761098a610939565b5b9250929050565b5f80602083850312156109a8576109a761077b565b5b5f83013567ffffffffffffffff8111156109c5576109c461077f565b5b6109d18582860161093d565b92509250509250929050565b5f819050919050565b6109ef816109dd565b82525050565b5f602082019050610a085f8301846109e6565b92915050565b5f81519050919050565b5f82825260208201905092915050565b5f5b83811015610a45578082015181840152602081019050610a2a565b5f8484015250505050565b5f610a5a82610a0e565b610a648185610a18565b9350610a74818560208601610a28565b610a7d8161078b565b840191505092915050565b5f6040820190508181035f830152610aa08185610a50565b9050610aaf60208301846109e6565b9392505050565b5f6020820190508181035f830152610ace8184610a50565b905092915050565b5f73ffffffffffffffffffffffffffffffffffffffff82169050919050565b5f610aff82610ad6565b9050919050565b610b0f81610af5565b8114610b19575f80fd5b50565b5f81519050610b2a81610b06565b92915050565b5f60208284031215610b4557610b4461077b565b5b5f610b5284828501610b1c565b91505092915050565b7f205468657265206973206e6f2063616e64696461746520666f722074686973205f8201527f706172747920696e2074686520636f6e74726163740000000000000000000000602082015250565b5f610bb5603583610a18565b9150610bc082610b5b565b604082019050919050565b5f6020820190508181035f830152610be281610ba9565b9050919050565b7f4e487b71000000000000000000000000000000000000000000000000000000005f52602260045260245ffd5b5f6002820490506001821680610c2d57607f821691505b602082108103610c4057610c3f610be9565b5b50919050565b5f819050815f5260205f209050919050565b5f6020601f8301049050919050565b5f82821b905092915050565b5f60088302610ca27fffffffffffffffffffffffffffffffffffffffffffffffffffffffffffffffff82610c67565b610cac8683610c67565b95508019841693508086168417925050509392505050565b5f819050919050565b5f610ce7610ce2610cdd846109dd565b610cc4565b6109dd565b9050919050565b5f819050919050565b610d0083610ccd565b610d14610d0c82610cee565b848454610c73565b825550505050565b5f90565b610d28610d1c565b610d33818484610cf7565b505050565b5b81811015610d5657610d4b5f82610d20565b600181019050610d39565b5050565b601f821115610d9b57610d6c81610c46565b610d7584610c58565b81016020851015610d84578190505b610d98610d9085610c58565b830182610d38565b50505b505050565b5f82821c905092915050565b5f610dbb5f1984600802610da0565b1980831691505092915050565b5f610dd38383610dac565b9150826002028217905092915050565b610dec82610a0e565b67ffffffffffffffff811115610e0557610e0461079b565b5b610e0f8254610c16565b610e1a828285610d5a565b5f60209050601f831160018114610e4b575f8415610e39578287015190505b610e438582610dc8565b865550610eaa565b601f198416610e5986610c46565b5f5b82811015610e8057848901518255600182019150602085019450602081019050610e5b565b86831015610e9d5784890151610e99601f891682610dac565b8355505b6001600288020188555050505b505050505050565b5f610ebd8385610a18565b9350610eca838584610843565b610ed38361078b565b840190509392505050565b5f6020820190508181035f830152610ef7818486610eb2565b90509392505050565b7f204e6f2063616e64696461746520666f756e6420666f722074686973207061725f8201527f7479000000000000000000000000000000000000000000000000000000000000602082015250565b5f610f5a602283610a18565b9150610f6582610f00565b604082019050919050565b5f6020820190508181035f830152610f8781610f4e565b9050919050565b7f205468657265206973206e6f20737563682070617274792065786973740000005f82015250565b5f610fc2601d83610a18565b9150610fcd82610f8e565b602082019050919050565b5f6020820190508181035f830152610fef81610fb6565b9050919050565b7f4e487b71000000000000000000000000000000000000000000000000000000005f52603260045260245ffd5b7f4e487b71000000000000000000000000000000000000000000000000000000005f52601160045260245ffd5b5f61105a826109dd565b91507fffffffffffffffffffffffffffffffffffffffffffffffffffffffffffffffff820361108c5761108b611023565b5b60018201905091905056fea2646970667358221220b1ffe2073fd300ec5a09982fd0849e7c6188239b41c99714b730cf025b711da564736f6c63430008140033",
  "immutableReferences": {},
  "source": "// SPDX-License-Identifier: MIT\npragma solidity >=0.6.0 <0.9.0; \n\nimport \"./Candidate.sol\";\n\nimport \"./Voter.sol\";\n\ncontract ElectionCommission {\n    \n    address ec_admin;\n    \n    Candidate  candidateContract;\n    Voter      voterContract;\n    \n    \n    constructor()  \n    {\n        ec_admin = msg.sender;\n        \n        candidateContract = new Candidate(address(this));\n        voterContract = new Voter(address(candidateContract));\n        \n        \n    }\n    \n    \n    modifier is_ECAdmin ()\n    {\n        require (msg.sender == ec_admin, \" You are not an administrator of this contract\");\n        _;\n    }\n    \n    \n    function getCandidateContractAddress() public view returns (address candidateContractAddress)\n    {\n        return address(candidateContract);\n    }\n    \n    \n    function getVoterContractAddress() public view returns (address voterContractAddress)\n    {\n        return address(voterContract);\n    }\n    \n    \n    function insertNewCandidate(string calldata _fname,\n    string calldata _lname, string calldata _party_name,\n    string calldata  _party_symbol, address candidate_address) external is_ECAdmin\n    {\n        candidateContract.insertCandidateData(_fname,_lname,_party_name,_party_symbol,candidate_address);\n    }\n    \n    \n}",
  "sourcePath": "C:\\Users\\Administrator\\Documents\\5_election_dapp\\contracts\\ElectionCommission.sol",
  "compiler": {
    "name": "solc",
    "version": "0.8.20+commit.a1b79de6.Emscripten.clang"
  },
  "schemaVersion": "3.4.14",
  "updatedAt": "2023-10-17T13:52:44.821Z",
  "networkType": "ethereum",
  "devdoc": {
    "kind": "dev",
    "methods": {},
    "version": 1
  },
  "userdoc": {
    "kind": "user",
    "methods": {},
    "version": 1
  }
}