{
  "contractName": "Voter",
  "abi": [
    {
      "inputs": [
        {
          "internalType": "address",
          "name": "_candidateAddress",
          "type": "address"
        }
      ],
      "stateMutability": "nonpayable",
      "type": "constructor"
    },
    {
      "inputs": [
        {
          "internalType": "string",
          "name": "national_id",
          "type": "string"
        },
        {
          "internalType": "string",
          "name": "_party_name",
          "type": "string"
        }
      ],
      "name": "insertVoteByParty",
      "outputs": [],
      "stateMutability": "nonpayable",
      "type": "function"
    },
    {
      "inputs": [
        {
          "internalType": "string",
          "name": "_party_name",
          "type": "string"
        }
      ],
      "name": "getVotesByParty",
      "outputs": [
        {
          "internalType": "uint256",
          "name": "total_votes",
          "type": "uint256"
        }
      ],
      "stateMutability": "view",
      "type": "function"
    },
    {
      "inputs": [
        {
          "internalType": "string",
          "name": "_party_name",
          "type": "string"
        }
      ],
      "name": "verifyMyVote",
      "outputs": [
        {
          "internalType": "string",
          "name": "nicop",
          "type": "string"
        },
        {
          "internalType": "uint256",
          "name": "voter_index",
          "type": "uint256"
        }
      ],
      "stateMutability": "view",
      "type": "function"
    }
  ],
  "bytecode": "0x608060405234801562000010575f80fd5b50604051620011ed380380620011ed8339818101604052810190620000369190620000e2565b8060015f6101000a81548173ffffffffffffffffffffffffffffffffffffffff021916908373ffffffffffffffffffffffffffffffffffffffff1602179055505062000112565b5f80fd5b5f73ffffffffffffffffffffffffffffffffffffffff82169050919050565b5f620000ac8262000081565b9050919050565b620000be81620000a0565b8114620000c9575f80fd5b50565b5f81519050620000dc81620000b3565b92915050565b5f60208284031215620000fa57620000f96200007d565b5b5f6200010984828501620000cc565b91505092915050565b6110cd80620001205f395ff3fe608060405234801561000f575f80fd5b506004361061003f575f3560e01c80630642d7e1146100435780634dd6c17e1461005f578063567fdd9b1461008f575b5f80fd5b61005d600480360381019061005891906108bf565b6100c0565b005b61007960048036038101906100749190610992565b6102d7565b60405161008691906109f5565b60405180910390f35b6100a960048036038101906100a49190610992565b61042d565b6040516100b7929190610a88565b60405180910390f35b5f60015f9054906101000a900473ffffffffffffffffffffffffffffffffffffffff1673ffffffffffffffffffffffffffffffffffffffff16638ec9bc6a836040518263ffffffff1660e01b815260040161011b9190610ab6565b602060405180830381865afa158015610136573d5f803e3d5ffd5b505050506040513d601f19601f8201168201806040525081019061015a9190610b30565b90505f73ffffffffffffffffffffffffffffffffffffffff168173ffffffffffffffffffffffffffffffffffffffff16036101ca576040517f08c379a00000000000000000000000000000000000000000000000000000000081526004016101c190610bcb565b60405180910390fd5b6101d2610743565b83815f018190525033816020019073ffffffffffffffffffffffffffffffffffffffff16908173ffffffffffffffffffffffffffffffffffffffff16815250505f808373ffffffffffffffffffffffffffffffffffffffff1673ffffffffffffffffffffffffffffffffffffffff1681526020019081526020015f2081908060018154018082558091505060019003905f5260205f2090600202015f909190919091505f820151815f0190816102889190610de3565b506020820151816001015f6101000a81548173ffffffffffffffffffffffffffffffffffffffff021916908373ffffffffffffffffffffffffffffffffffffffff160217905550505050505050565b5f8060015f9054906101000a900473ffffffffffffffffffffffffffffffffffffffff1673ffffffffffffffffffffffffffffffffffffffff16638ec9bc6a85856040518363ffffffff1660e01b8152600401610335929190610ede565b602060405180830381865afa158015610350573d5f803e3d5ffd5b505050506040513d601f19601f820116820180604052508101906103749190610b30565b90505f73ffffffffffffffffffffffffffffffffffffffff168173ffffffffffffffffffffffffffffffffffffffff16036103e4576040517f08c379a00000000000000000000000000000000000000000000000000000000081526004016103db90610f70565b60405180910390fd5b5f808273ffffffffffffffffffffffffffffffffffffffff1673ffffffffffffffffffffffffffffffffffffffff1681526020019081526020015f208054905091505092915050565b60605f8060015f9054906101000a900473ffffffffffffffffffffffffffffffffffffffff1673ffffffffffffffffffffffffffffffffffffffff16638ec9bc6a86866040518363ffffffff1660e01b815260040161048d929190610ede565b602060405180830381865afa1580156104a8573d5f803e3d5ffd5b505050506040513d601f19601f820116820180604052508101906104cc9190610b30565b90505f73ffffffffffffffffffffffffffffffffffffffff168173ffffffffffffffffffffffffffffffffffffffff160361053c576040517f08c379a000000000000000000000000000000000000000000000000000000000815260040161053390610fd8565b60405180910390fd5b5f5b5f808373ffffffffffffffffffffffffffffffffffffffff1673ffffffffffffffffffffffffffffffffffffffff1681526020019081526020015f2080549050811015610739573373ffffffffffffffffffffffffffffffffffffffff165f808473ffffffffffffffffffffffffffffffffffffffff1673ffffffffffffffffffffffffffffffffffffffff1681526020019081526020015f2082815481106105ea576105e9610ff6565b5b905f5260205f2090600202016001015f9054906101000a900473ffffffffffffffffffffffffffffffffffffffff1673ffffffffffffffffffffffffffffffffffffffff1603610726575f808373ffffffffffffffffffffffffffffffffffffffff1673ffffffffffffffffffffffffffffffffffffffff1681526020019081526020015f20818154811061068257610681610ff6565b5b905f5260205f2090600202015f018181805461069d90610c16565b80601f01602080910402602001604051908101604052809291908181526020018280546106c990610c16565b80156107145780601f106106eb57610100808354040283529160200191610714565b820191905f5260205f20905b8154815290600101906020018083116106f757829003601f168201915b5050505050915093509350505061073c565b808061073190611050565b91505061053e565b50505b9250929050565b6040518060400160405280606081526020015f73ffffffffffffffffffffffffffffffffffffffff1681525090565b5f604051905090565b5f80fd5b5f80fd5b5f80fd5b5f80fd5b5f601f19601f8301169050919050565b7f4e487b71000000000000000000000000000000000000000000000000000000005f52604160045260245ffd5b6107d18261078b565b810181811067ffffffffffffffff821117156107f0576107ef61079b565b5b80604052505050565b5f610802610772565b905061080e82826107c8565b919050565b5f67ffffffffffffffff82111561082d5761082c61079b565b5b6108368261078b565b9050602081019050919050565b828183375f83830152505050565b5f61086361085e84610813565b6107f9565b90508281526020810184848401111561087f5761087e610787565b5b61088a848285610843565b509392505050565b5f82601f8301126108a6576108a5610783565b5b81356108b6848260208601610851565b91505092915050565b5f80604083850312156108d5576108d461077b565b5b5f83013567ffffffffffffffff8111156108f2576108f161077f565b5b6108fe85828601610892565b925050602083013567ffffffffffffffff81111561091f5761091e61077f565b5b61092b85828601610892565b9150509250929050565b5f80fd5b5f80fd5b5f8083601f84011261095257610951610783565b5b8235905067ffffffffffffffff81111561096f5761096e610935565b5b60208301915083600182028301111561098b5761098a610939565b5b9250929050565b5f80602083850312156109a8576109a761077b565b5b5f83013567ffffffffffffffff8111156109c5576109c461077f565b5b6109d18582860161093d565b92509250509250929050565b5f819050919050565b6109ef816109dd565b82525050565b5f602082019050610a085f8301846109e6565b92915050565b5f81519050919050565b5f82825260208201905092915050565b5f5b83811015610a45578082015181840152602081019050610a2a565b5f8484015250505050565b5f610a5a82610a0e565b610a648185610a18565b9350610a74818560208601610a28565b610a7d8161078b565b840191505092915050565b5f6040820190508181035f830152610aa08185610a50565b9050610aaf60208301846109e6565b9392505050565b5f6020820190508181035f830152610ace8184610a50565b905092915050565b5f73ffffffffffffffffffffffffffffffffffffffff82169050919050565b5f610aff82610ad6565b9050919050565b610b0f81610af5565b8114610b19575f80fd5b50565b5f81519050610b2a81610b06565b92915050565b5f60208284031215610b4557610b4461077b565b5b5f610b5284828501610b1c565b91505092915050565b7f205468657265206973206e6f2063616e64696461746520666f722074686973205f8201527f706172747920696e2074686520636f6e74726163740000000000000000000000602082015250565b5f610bb5603583610a18565b9150610bc082610b5b565b604082019050919050565b5f6020820190508181035f830152610be281610ba9565b9050919050565b7f4e487b71000000000000000000000000000000000000000000000000000000005f52602260045260245ffd5b5f6002820490506001821680610c2d57607f821691505b602082108103610c4057610c3f610be9565b5b50919050565b5f819050815f5260205f209050919050565b5f6020601f8301049050919050565b5f82821b905092915050565b5f60088302610ca27fffffffffffffffffffffffffffffffffffffffffffffffffffffffffffffffff82610c67565b610cac8683610c67565b95508019841693508086168417925050509392505050565b5f819050919050565b5f610ce7610ce2610cdd846109dd565b610cc4565b6109dd565b9050919050565b5f819050919050565b610d0083610ccd565b610d14610d0c82610cee565b848454610c73565b825550505050565b5f90565b610d28610d1c565b610d33818484610cf7565b505050565b5b81811015610d5657610d4b5f82610d20565b600181019050610d39565b5050565b601f821115610d9b57610d6c81610c46565b610d7584610c58565b81016020851015610d84578190505b610d98610d9085610c58565b830182610d38565b50505b505050565b5f82821c905092915050565b5f610dbb5f1984600802610da0565b1980831691505092915050565b5f610dd38383610dac565b9150826002028217905092915050565b610dec82610a0e565b67ffffffffffffffff811115610e0557610e0461079b565b5b610e0f8254610c16565b610e1a828285610d5a565b5f60209050601f831160018114610e4b575f8415610e39578287015190505b610e438582610dc8565b865550610eaa565b601f198416610e5986610c46565b5f5b82811015610e8057848901518255600182019150602085019450602081019050610e5b565b86831015610e9d5784890151610e99601f891682610dac565b8355505b6001600288020188555050505b505050505050565b5f610ebd8385610a18565b9350610eca838584610843565b610ed38361078b565b840190509392505050565b5f6020820190508181035f830152610ef7818486610eb2565b90509392505050565b7f204e6f2063616e64696461746520666f756e6420666f722074686973207061725f8201527f7479000000000000000000000000000000000000000000000000000000000000602082015250565b5f610f5a602283610a18565b9150610f6582610f00565b604082019050919050565b5f6020820190508181035f830152610f8781610f4e565b9050919050565b7f205468657265206973206e6f20737563682070617274792065786973740000005f82015250565b5f610fc2601d83610a18565b9150610fcd82610f8e565b602082019050919050565b5f6020820190508181035f830152610fef81610fb6565b9050919050565b7f4e487b71000000000000000000000000000000000000000000000000000000005f52603260045260245ffd5b7f4e487b71000000000000000000000000000000000000000000000000000000005f52601160045260245ffd5b5f61105a826109dd565b91507fffffffffffffffffffffffffffffffffffffffffffffffffffffffffffffffff820361108c5761108b611023565b5b60018201905091905056fea2646970667358221220b1ffe2073fd300ec5a09982fd0849e7c6188239b41c99714b730cf025b711da564736f6c63430008140033",
  "immutableReferences": {},
  "source": "// SPDX-License-Identifier: MIT\npragma solidity >=0.6.0 <0.9.0; \n\nimport './Candidate.sol';\n\ncontract Voter {\n    \n    struct VoterData\n    {\n        string nicop;\n        address ethereum_address;\n    }\n    \n    \n    mapping(address => VoterData[]) voters;\n    \n    Candidate candidateContract;\n    \n    \n    constructor(address _candidateAddress) \n    {\n        candidateContract =  Candidate(_candidateAddress);\n    }\n    \n    \n    function insertVoteByParty(string memory national_id,string memory _party_name) public \n    {\n        \n        address ethereum_candidate_address = candidateContract.getCandidateAddressByPartyName(_party_name);\n        \n        require(ethereum_candidate_address != address(0),\" There is no candidate for this party in the contract\" );\n        \n        \n        VoterData memory vdata;\n        vdata.nicop = national_id;\n        vdata.ethereum_address = msg.sender;\n        \n        \n        voters[ethereum_candidate_address].push(vdata);\n\n    }\n    \n    \n    function getVotesByParty(string calldata _party_name) public view returns (uint total_votes)\n    {\n        address ethereum_candidate_address = candidateContract.getCandidateAddressByPartyName(_party_name);\n        \n        require(ethereum_candidate_address != address(0),\" No candidate found for this party\" );\n        \n       return voters[ethereum_candidate_address].length;\n   \n    }\n    \n    function verifyMyVote(string calldata _party_name) public view returns (string memory nicop, uint voter_index)\n    {\n     \n        address ethereum_candidate_address = candidateContract.getCandidateAddressByPartyName(_party_name);\n        \n        require(ethereum_candidate_address != address(0),\" There is no such party exist\" );\n    \n        for(uint loop=0;loop<voters[ethereum_candidate_address].length; loop++)\n        {\n            if(voters[ethereum_candidate_address][loop].ethereum_address == msg.sender)\n            {\n                return (voters[ethereum_candidate_address][loop].nicop, loop);\n            }\n        }\n    }\n   \n}",
  "sourcePath": "C:\\Users\\Administrator\\Documents\\5_election_dapp\\contracts\\Voter.sol",
  "compiler": {
    "name": "solc",
    "version": "0.8.20+commit.a1b79de6.Emscripten.clang"
  },
  "schemaVersion": "3.4.14",
  "updatedAt": "2023-10-17T13:52:41.637Z",
  "devdoc": {
    "kind": "dev",
    "methods": {},
    "version": 1
  },
  "userdoc": {
    "kind": "user",
    "methods": {},
    "version": 1
  }
}